:03000000020026D5
:10000B00C0E0C0D0D2B0A2B092601201F3D53006DE
:0E001B007530041201A0D0D0D0E03275300450
:1000290075A882758902758C06758A06D28CD2608C
:0F0039001200D974541200E974451200E9744D95
:0F0048001200E974501200E974451200E9745275
:0F0057001200E974411200E974541200E9745563
:0F0066001200E974521200E974411200E9743A71
:0F0075001200E974C01200FB80FEC29000C2931B
:10008400D291D29000C290D29000C290C291D290EC
:1000940000C29000D29000C29000D29000C29000A2
:1000A400D29000C29074007805D292A29233D2907A
:1000B40000C290D8F4F52A74007808D292A2923340
:0E00C400D29000C290D8F4F52BD29322740192
:0E00D2001200FB12010D2274381200FB740F95
:1000E0001200FB74801200FB22D2A0120116D2A1D2
:1000F000120116F580C2A112011622C2A012011629
:0F010000D2A1120116F580C2A11201162278FFBA
:10010F007A06DAFED8FA227807D8FE227C007D0024
:0E011F007B1112013EEDB502057D00D3800B71
:10012D0020D707C3ED9AFDD38001C3DBE77D00C364
:10013D0022C0D0BB0102EDFFD0D0E933F9E833F88E
:10014D00ED33FDEC33FC2212015B12016F227C11A9
:10015D00EA33FAB3EB33FBDCF7EB2401FBEA3400B3
:0F016D00FA22E92BFFE83AFE30D7047D01800229
:0F017C007D0022E8B5020FE9B503067400D2E159
:10018B00801220D70B800320D7067400D2E08004A6
:0F019B007400D2E22290024512007FA82AA92BFD
:1001AA007A027B2612017F20E01620E11320E2006A
:1001BA0078027926AA2AAB2B12015475540A800EAA
:1001CA00A82AA92B7A027B2612015475540BEEF841
:0E01DA00EFF97A0A12011B8F5012011B8F5190
:1001E80012011B8F5212011B8F5322206041D2B083
:1001F800A2B092603060F7D26074C01200FBE55480
:10020800931200E9E553931200E9E552931200E9CD
:10021800E551931200E9742E1200E974301200E9D6
:1002280074201200E9742A1200E974431200E922CA
:100238007A0279FF78FFD8FED9FADAF6223031321D
:09024800333435363738392B2DDB
:00000001FF
