:0300000002000FEC
:10000B001200433275A882758902758A06758C06B3
:0F001B00D28C90009DC2A0C2A27530007531003A
:0F002A00752AFFD27812005930780CC278E53170
:10003900120088E53012008880ECC2B1C2B0D2B19A
:100049007908D2B2A2B233D2B0C2B0D9F5F52A2218
:0F0059003050053051158026D2783050FD1531CA
:0E006800E531B4FF1A75310915308013D278D6
:0F0076003051FD0531E531B40A07753100053011
:0F0085008000229312008D2278083392A1D2A01E
:10009400C2A0D8F7D2A2C2A2223F065B4F666D7DF2
:0300A400077F6F64
:00000001FF
